{
  "contractName": "Notary",
  "abi": [
    {
      "inputs": [],
      "payable": false,
      "stateMutability": "nonpayable",
      "type": "constructor",
      "signature": "constructor"
    },
    {
      "anonymous": false,
      "inputs": [
        {
          "indexed": false,
          "name": "recordId",
          "type": "uint256"
        }
      ],
      "name": "NewRecordCreated",
      "type": "event",
      "signature": "0x81819ca79714343b582f1d934c1a50cc53065c9c9d46f6d6614d0bf2a09ff4d0"
    },
    {
      "constant": false,
      "inputs": [
        {
          "name": "hash",
          "type": "uint256"
        }
      ],
      "name": "createRecord",
      "outputs": [
        {
          "name": "",
          "type": "uint256"
        }
      ],
      "payable": false,
      "stateMutability": "nonpayable",
      "type": "function",
      "signature": "0x8e19fd6e"
    },
    {
      "constant": true,
      "inputs": [
        {
          "name": "recordId",
          "type": "uint256"
        }
      ],
      "name": "getRecordInfo",
      "outputs": [
        {
          "name": "",
          "type": "uint256"
        },
        {
          "name": "",
          "type": "uint256"
        }
      ],
      "payable": false,
      "stateMutability": "view",
      "type": "function",
      "signature": "0x382ef4ea"
    }
  ],
  "bytecode": "0x608060405234801561001057600080fd5b506000600181905550610198806100286000396000f3fe60806040526004361061004c576000357c0100000000000000000000000000000000000000000000000000000000900463ffffffff168063382ef4ea146100515780638e19fd6e146100a7575b600080fd5b34801561005d57600080fd5b5061008a6004803603602081101561007457600080fd5b81019080803590602001909291905050506100f6565b604051808381526020018281526020019250505060405180910390f35b3480156100b357600080fd5b506100e0600480360360208110156100ca57600080fd5b810190808035906020019092919050505061012e565b6040518082815260200191505060405180910390f35b600080600080848152602001908152602001600020600101546000808581526020019081526020016000206000015491509150915091565b60008060008060015481526020019081526020016000209050828160000181905550600060015490506001805401600181905550809250505091905056fea165627a7a72305820fce6a5eddd36418e4b2898238e750b382624df0cca070d5045f732def25610e80029",
  "source": "/*\r\n    ----------------------------------------------------------------------------\r\n        Author: Andrijan Ostrun\r\n                April, 2018.\r\n                github.com/aostrun\r\n                \r\n        \r\n    ----------------------------------------------------------------------------         \r\n    \r\n    \r\n    Smart Contract serving as Notary Public where you can protect an document \r\n    or a file in general by storing it's hash value on the Ethereum blockchain.\r\n    \r\n    Every record besides file hash has parties associated with the record (can be \r\n    any number of parties) which can come handy if you are using this as a medium \r\n    to store real contracts.\r\n    \r\n    Every party associated with the record has to accept it before the record becomes\r\n    valid. This stands as a protection for all parties involved.\r\n    \r\n    Creation of new record starts with providing:\r\n        - Hash value of the file that is being protected (uint256)\r\n        - Parties associated with the record (address[])\r\n        - Unix Timestamp for record expiration (uint256) \r\n            -> current timestamp can be found at: https://www.unixtimestamp.com/\r\n        \r\n        -> Creation of the record returns unique record ID that has to be remembered by parties\r\n            if they want to access that record ever again.\r\n        \r\n    Example of record creation:\r\n        createRecord(2142131241, [\"address#1\", \"address#2\", \"address#3\"], 2523910141)\r\n    \r\n    Parties accept record by calling function acceptRecord from their address. \r\n    Function takes record ID as an argument.\r\n        \r\n    File can be verified by calling verify function. Function can be called only from\r\n    address that is party on particulat record. Function takes record ID and hash value that\r\n    we want to verify as arguments and returns boolean value, true if provided hash value\r\n    matches one on the record.\r\n\r\n*/\r\n\r\npragma solidity ^0.5.0;\r\n\r\ncontract Notary{\r\n    \r\n    /*\r\n        Mapping holding the records\r\n    */\r\n    mapping( uint256 => Record ) private records;\r\n    \r\n    /*\r\n        Records counter, unique ID for every record\r\n    */\r\n    uint256 private currentId;\r\n    \r\n    struct Record{\r\n        \r\n        // Hash of the file that this record is protecting\r\n        uint256 hash;\r\n        \r\n        // Store the timestamp of record creation\r\n        uint256 createdAt;\r\n               \r\n    }\r\n    \r\n    event NewRecordCreated(uint256 recordId);\r\n        \r\n    \r\n    /*\r\n        Constructor, initialize record counter\r\n    */\r\n    constructor() public{\r\n        currentId = 0;\r\n    }\r\n    \r\n    /*\r\n        Create new record and add parties associated with this record and set its validity time\r\n        uint256 hash, address[] _parties, uint256 validUntil\r\n    */\r\n    function createRecord(uint256 hash)\r\n        external\r\n        returns (uint256)\r\n    {\t\r\n\t\t\r\n\t\t// Limit max number of parties to 10\r\n\t\t\r\n        // Create new record\r\n        Record storage newRecord = records[currentId]; // = Record(0, new address[](0), new address[](0), 0, 0, 0);\r\n        newRecord.hash = hash;\t\t\r\n   \r\n        uint256 returnId = currentId;\r\n        // Uncomment if you want to trigger event when new record is created\r\n        //emit NewRecordCreated(currentId);\r\n        currentId = currentId + 1;\r\n        \r\n        return returnId;\r\n        \r\n    }\r\n    \r\n\r\n    // Return the record hash \r\n    function getRecordInfo(uint256 recordId) \r\n        external \r\n        view\r\n        returns (uint256, uint256)\r\n    {\r\n        return (records[recordId].createdAt, records[recordId].hash);\r\n    }\r\n   \r\n    \r\n}",
  "sourcePath": "D:/git.repo/bndestoken-d/Back-Blockchain/contracts/Notary.sol",
  "compiler": {
    "name": "solc",
    "version": "0.5.0+commit.1d4f565a.Emscripten.clang"
  },
  "schemaVersion": "3.0.2",
  "updatedAt": "2019-12-13T18:13:40.074Z",
  "devdoc": {
    "methods": {}
  },
  "userdoc": {
    "methods": {}
  }
}